:1000000000000220AD010000D9010000D90100006C
:10001000D9010000D9010000D9010000D901000078
:10002000D9010000D9010000D901000041040000FD
:10003000D9010000D901000071040000B5040000DE
:10004000D9010000D9010000D9010000D901000048
:10005000D9010000D9010000D9010000D901000038
:10006000D9010000D90100001D290000D9010000BC
:10007000D9010000D9010000D9010000D901000018
:10008000D9010000D9010000D9010000D901000008
:10009000D9010000D9010000D9010000D9010000F8
:1000A000D9010000D9010000D9010000D9010000E8
:1000B000D9010000D9010000ED280000192300003B
:1000C000D9010000D9010000D9010000D9010000C8
:1000D000D9010000D9010000D901000010B5054C7C
:1000E000237833B9044B13B10448AFF300800123E4
:1000F000237010BD98000020000000001C3E00008E
:10010000084B10B51BB108480849AFF300800848F8
:10011000036803B910BD074B002BFBD0BDE81040AE
:10012000184700BF000000001C3E00009C0000209B
:100130009400002000000000154B002B08BF134B5B
:100140009D46A3F5803A00218B460F461348144A7A
:10015000121A02F01FFD0F4B002B00D098470E4BD8
:10016000002B00D098470020002104000D000D480E
:10017000002802D00C48AFF3008002F0E5FC20001C
:10018000290002F059FB02F0CBFC00BF0000080080
:100190000000022000000000000000009800002085
:1001A00058010020000000000000000006488047C1
:1001B0000649074A074B9A42BEBF51F8040B42F862
:1001C000040BF8E7FFF7B8FF59030000283E0000D2
:1001D0000000002098000020FEE700BF80B400AFC0
:1001E000044BDB6C1B0EDBB21846BD465DF8047B8E
:1001F000704700BFB081E00F80B582B000AF00F063
:100200001FF87860074B5B6803F00F031A467B68A2
:10021000D3407B60044A7B6813607B6818460837CC
:10022000BD4680BD00800C400800002080B400AFB7
:10023000024B1846BD465DF8047B7047006CDC023B
:1002400080B582B000AF334BDB6A03F47053B3F573
:10025000805F0AD0B3F5005F03D0B3F5006F08D01C
:100260000BE02D4B1B687B6047E04FF400437B6045
:1002700043E02A4B1B687B603FE0264BDB6803F4BE
:10028000E063B3F5007F1BD0B3F5007F05D8002BEA
:1002900024D0B3F5807F16D02BE0B3F5806F09D062
:1002A000B3F5A06F03D0B3F5407F06D021E01C4B1F
:1002B0007B6021E01B4B7B601EE01B4B7B601BE0E7
:1002C0001A4B7B6018E0FFF789FF0346122B02D917
:1002D000174B7B6010E0174B7B600DE0FFF77EFF54
:1002E0000346122B02D9144B7B6005E0134B7B6055
:1002F00002E000237B6000BF00BF064B1B6803F4D5
:10030000E0339B0B01337A68B2FBF3F318460837EE
:10031000BD4680BD00800C4004000020000000208D
:10032000003FAB01406F4001809FD500C0D8A700BF
:1003300040B56400C0CF6A00804F120040420F00F9
:1003400080B400AF034B1B681846BD465DF8047BC4
:10035000704700BF0000002080B400AFBD465DF8CC
:10036000047B704780B400AF4FF400431846BD468D
:100370005DF8047B704700BF80B400AF4FF47A7320
:100380001846BD465DF8047B704700BF80B400AFDF
:10039000034B1B681846BD465DF8047B704700BFE1
:1003A0000400002080B485B000AF786039607B68BD
:1003B0005B68FB603B68FA685A60FB689A683B6858
:1003C0009A60FB689B683A685A60FB683A689A6072
:1003D0003B687A681A617B681B685A1C7B681A60E4
:1003E0001437BD465DF8047B704700BF80B485B00C
:1003F00000AF78607B681B69FB607B685B687A682C
:1004000092689A607B689B687A6852685A60FB6859
:100410005A687B689A4203D17B689A68FB685A6085
:100420007B6800221A61FB681B685A1EFB681A6011
:10043000FB681B6818461437BD465DF8047B70479F
:10044000074B19680868B0E8F00F80F30988BFF31C
:100450006F8F4FF0000080F311884EF00D0E704743
:10046000B4000020000000000000000000000000B8
:10047000EFF30980BFF36F8F0D4B1A6820E9F00F7F
:1004800010602DE908404FF0BF0080F3118800F0A4
:10049000EDF84FF0000080F31188BDE808401968BE
:1004A0000868B0E8F00F80F30988BFF36F8F7047DA
:1004B000B400002080B582B000AF4FF0BF0383F3DB
:1004C0001188BFF36F8FBFF34F8F7B6000F012F87E
:1004D0000346002B03D0064B4FF080521A600023D6
:1004E0003B603B6883F311880837BD4680BD00BF81
:1004F00004ED00E080B586B000AF00237B614F4B78
:100500001B68002B40F089804D4B1B6801333B6119
:100510004B4A3B6913603B69002B1AD1494B1B685E
:100520001B68002B04D0484840F6D91100F016F99A
:10053000444B1B68FB60454B1B68424A1360434AAF
:10054000FB681360424B1B680133414A136000F0A3
:10055000E1F8404B1B683A699A424FD3394B1B680C
:100560001B68002B01D1012300E00023002B04D0E5
:10057000384B4FF0FF321A6040E0324B1B68DB68AB
:10058000DB68BB60BB685B687B603A697B689A42EA
:1005900003D2304A7B68136030E0BB6804331846EE
:1005A000FFF724FFBB689B6A002B04D0BB6818339D
:1005B0001846FFF71BFFBB68DB6A1A46012303FAE4
:1005C00002F2254B1B681343234A1360BB68DA6AA7
:1005D00013469B0013449B00204A1A44BB68043313
:1005E00010461946FFF7DEFEBB68DA6A1C4B1B6833
:1005F000DB6A9A4201D301237B61AFE7184B1B688A
:10060000DA6A164913469B0013449B000B441B688F
:10061000012B01D901237B6104E0124B1B680133DC
:10062000104A1360104B1B68002B01D001237B6123
:100630007B6918461837BD4680BD00BF14010020F5
:10064000FC000020F4000020B4390000F800002075
:100650000C0100201001002000010020B800002043
:10066000B4000020040100200801002080B584B0FF
:1006700000AF224B1B68002B03D0214B01221A60D4
:1006800039E01F4B00221A601E4B1B687B607B68A1
:10069000B3FA83F3FB70FB78C3F11F03FB601A49C5
:1006A000FA6813469B0013449B000B441B68002B05
:1006B00004D1164840F6F62100F050F8FA681346C7
:1006C0009B0013449B00104A1344BB60BB685B68EB
:1006D0005A68BB685A60BB685A68BB6808339A425C
:1006E00004D1BB685B685A68BB685A60BB685B68CA
:1006F000DB68074A13601037BD4680BD1401002037
:100700000801002000010020B8000020B4390000DA
:10071000B400002080B483B000AF0E4B1B681B6890
:10072000002B01D1012300E00023002B04D00A4B51
:100730004FF0FF321A6008E0064B1B68DB68DB688D
:100740007B607B685B68044A13600C37BD465DF8CC
:10075000047B7047F40000201001002080B483B0B7
:1007600000AF78603960FEE780B483B000AF786096
:100770000C4B9B6B03F00103002B05D1094B1B684D
:1007800003F44053002B00D106E000BF054BDA6BA9
:100790007B681340002BF9D10C37BD465DF8047B14
:1007A000704700BF0010084080B582B000AF78608D
:1007B00039607B68002B03D00648CA21FFF7CEFFC3
:1007C0000220FFF7D1FF044A3B68D3600837BD46DB
:1007D00080BD00BF403A00000010084080B582B0E4
:1007E00000AF78607B68002B03D00548DF21FFF75E
:1007F000B5FF044BDB6818460837BD4680BD00BF17
:10080000403A00000010084080B487B000AFF860A4
:10081000B9607A60FB6803F10473DA00BB681344C3
:100820009B007B617B697A681A601C37BD465DF866
:10083000047B704780B485B000AF786039607B6816
:1008400003F10473DA003B6813449B00FB60FB6810
:100850001B6818461437BD465DF8047B704700BF1F
:1008600080B584B000AF78607B68002B03D07B68D4
:10087000B3F5004F04D9084840F2AB61FFF76EFFB3
:100880007B68B3FA83F3C3F11F03FB60FB68184670
:100890001037BD4680BD00BF543A000080B400AFA1
:1008A000044BDB6C1B0EDBB21846BD465DF8047BC7
:1008B000704700BFB081E00F80B400AF054BDB6C28
:1008C00003F47F031B0CDBB21846BD465DF8047BC6
:1008D000704700BFB081E00F80B582B000AFFFF776
:1008E000EBFF03464A2B04D0792B02D0482B21D0B2
:1008F00022E0164B1B699BB203F03F039BB21B0225
:10090000FB80124B9B6903F0F0039AB2FB88134300
:10091000FB800E4BDB6903F0F0031B099AB2FB88E6
:100920001343FB80FB88B3F5017F01D3084B09E03B
:10093000084B07E0074B05E007484FF49F71FFF7AE
:100940000DFF002318460837BD4680BDD0FF0FE0DD
:1009500000366E010048E801B83A000080B584B066
:1009600000AF78600123FB60FFF7B6FF02467B68AB
:100970009A4204D30023FB600023BB600BE0FFF727
:10098000ABFF03465A007B689A4202D30123BB6047
:1009900001E00223BB6008481E21FA68FFF734FF1C
:1009A0000549054B5B6823F48072BB681B02134347
:1009B0004B601037BD4680BD00800C4080B582B0D2
:1009C00000AF05481E21FFF735FF78607B681846A9
:1009D0000837BD4680BD00BF00800C4080B582B0A6
:1009E00000AF244B5B6903F4E063B3F5007F1CD0D8
:1009F000B3F5007F05D8002B25D0B3F5807F1FD03D
:100A00002AE0B3F5C06F24D0B3F5E06F1ED0B3F584
:100A1000407F21D1FFF742FF0346122B02D9164B2C
:100A20007B6021E0154B7B601EE0FFF737FF03463C
:100A3000122B02D9124B7B6016E0124B7B6013E045
:100A4000114B7B6010E0114B7B600DE0104B7B6025
:100A50000AE0104B7B6007E000237B600E4840F209
:100A6000BD11FFF77BFE00BF7B6818460837BD4607
:100A700080BD00BF00800C40804F120040420F003C
:100A800040B56400C0CF6A00C0D8A700809FD500E1
:100A9000406F4001003FAB01B83A000080B582B022
:100AA00000AF0F4800F0D2FA0346FB70FB78072B2B
:100AB00005D0092B07D1FFF7C3FB78600BE0FFF7E8
:100AC0008DFF786007E000237B60064840F2F71155
:100AD000FFF744FE00BF7B6818460837BD4680BD5F
:100AE00006000C00B83A000080B485B000AF786012
:100AF0003960204B5B6803F00703FB60FB68012B48
:100B000001D9042B02D10023FB7202E00123FB7206
:100B100000BF7B68184A934207D9FB7A002B01D0AB
:100B2000052300E00423FB6016E07B68124A934231
:100B30000BD87B68114A934207D9FB7A002B01D06E
:100B4000032300E00123FB6006E0FB7A002B01D0C9
:100B5000022300E00023FB600649064B5B6823F09C
:100B60000702FB6813434B601437BD465DF8047BF6
:100B7000704700BF00000C400048E8010024F4006A
:100B800080B582B000AF0D4BDB6B002B14BF01238F
:100B90000023FB71094B41F67132DA63FFF746FB24
:100BA000034618460021FFF79FFFFB79002B02D078
:100BB000024B0022DA630837BD4680BD00000C40BE
:100BC00080B584B000AF786039600C4BDB6B002BD4
:100BD00014BF01230023FB73084B41F67132DA6323
:100BE00078683968FFF780FFFB7B002B02D0034B4E
:100BF0000022DA631037BD4680BD00BF00000C4004
:100C000090B585B000AF78600023BB607B683B4A3D
:100C1000934208D03A4A934205D03A484FF4806153
:100C2000FFF79CFD00E000BF786800F00FFA034674
:100C3000FB607B68314A934203D0314A934206D02D
:100C40000CE0314B9B6A03F00303FB600CE02E4B7E
:100C50009B6A03F00C039B08FB6005E0294840F207
:100C60002F41FFF77BFD00BFFB68032B39D801A2A2
:100C700052F823F0AB0C0000850C00008D0C000036
:100C8000950C0000FFF76EFBB86032E0FFF77EFBCB
:100C9000B8602EE0FFF7B0FA0446FFF78FFE034678
:100CA000013324FA03F3BB6023E00023BB607B68BD
:100CB000124A934203D07B68114A934210D1124BDF
:100CC0009A6A7B680D498B4201D1102300E01423FE
:100CD00022FA03F3002B03D0FFF74EFBB86008E0C5
:100CE00007E00023BB60074840F25A41FFF736FD9A
:100CF00000BFBB6818461437BD4690BD02001A00FD
:100D000003001C00B83A000000800C4080B483B09F
:100D100000AF7860094B5B6D03F00103002B00D03E
:100D200006E000BF054B1A6D7B681340002BF9D11C
:100D30000C37BD465DF8047B704700BF00800C4057
:100D400080B582B000AF104800F080F90346FB7018
:100D5000FB78032B07D0092B09D0022B0BD1FFF70F
:100D600015FB78600AE0FFF7FDFA786006E0FFF710
:100D700067FA786002E000237B6000BF7B6818465A
:100D80000837BD4680BD00BF0723220080B586B06E
:100D900000AF78600B46FB7000233B617B681B0A49
:100DA00003F00F03013B092B33D801A252F823F0C3
:100DB000ED0D0000F30D0000D90D0000130E000032
:100DC000130E0000F90D0000030E0000130E0000CA
:100DD000130E00000D0E00001B4B7B611B4800F042
:100DE00043F803461846FFF7B9FD18E0184B7B613E
:100DF00015E0184B7B6112E0174B7B6101233B61CF
:100E00000DE0164B7B6110233B6108E0144B7B61C6
:100E100005E0144840F62B01FFF7A0FC10E07B68CA
:100E20001B0B03F01F03FB603B69002B02D03869EA
:100E3000FFF76CFFFB787869F9681A46FFF7E4FC66
:100E40001837BD4680BD00BF40800C400043020003
:100E500008800C4044800C4058800C4060800C405E
:100E600078800C40B83A000090B585B000AF78604B
:100E70007B6803F47813B3F5B01F00F0AB80B3F5D3
:100E8000B01F1AD8B3F5402F00F0BF80B3F5402F44
:100E900008D8B3F5003F3CD0B3F5802F2DD0002B00
:100EA00027D0BEE0B3F5801F3CD0B3F5A01F47D0DC
:100EB000B3F5602F00F0AD80B3E0B3F5081F00F08C
:100EC000AC80B3F5081F0AD8B3F5D01F25D0B3F511
:100ED000E01F7AD0B3F5C01F00F08980A1E0B3F520
:100EE000201F4ED0B3F5281F62D0B3F5181F35D0A0
:100EF00097E0FFF7A5F9F8609BE0FFF7A1F9F8602C
:100F00004E4B9B6803F00F031A46FB68D340FB600F
:100F10008FE0FFF771F9F8608BE04948FFF770FE4A
:100F2000F86086E04648FFF76BFEF860434B9B6E27
:100F300003F0F0031B091A46FB68D340FB6078E01E
:100F40003F48FFF75DFEF8603C4B9B6E03F4706317
:100F50001B0A1A46FB68D340FB606AE03848FFF77B
:100F60004FFEF860354B9B6E03F440531C0B102072
:100F7000FFF776FC034623441A46FB68D340FB6028
:100F800057E02F48FFF73CFEF8602C4B9B6E03F4B4
:100F900040531B0B1A46FB68D340FB60274BDB6FAB
:100FA00003F007030133FA68B2FBF3F3FB6040E0A0
:100FB0002348FFF725FEF860204B9B6E03F00303E8
:100FC0001A46FB68D340FB6033E01E48FFF718FE6B
:100FD000F8602EE01B48FFF713FEF860174B1B6FFD
:100FE00003F003031A46FB68D340FB6021E0154879
:100FF000FFF706FEF860114B1B6F03F030031B096F
:101000001A46FB68D340FB6013E0FFF747FDF8602A
:101010000FE0FFF7E3FCF8600BE0FFF791FEF860EC
:1010200007E00023FB6008484FF41261FFF796FBCE
:1010300000BFFB6818461437BD4690BD00800C40C9
:1010400002001A0003001C00B83A000080B584B00A
:1010500000AF78600123FB737B6803F00F03BB6074
:10106000BB68013B062B00F2938001A252F823F0EB
:101070008D100000C3100000FF100000911100004F
:10108000911100003B1100005D110000474BDB6A2D
:1010900003F47053B3F5805F09D0B3F5005F03D05C
:1010A000B3F5006F06D008E00223FB7308E00323CA
:1010B000FB7305E00423FB7302E00523FB7300BF11
:1010C0006EE03A4B9B6A03F00303022B06D0032B1E
:1010D00007D0012B08D10323FB730FE00223FB731E
:1010E0000CE00623FB7309E0304B9B6A03F480336A
:1010F000002B02D00A23FB7300E000BF50E02B4B13
:101100009B6A03F00C03082B06D00C2B07D0042B92
:1011100008D10323FB730FE00223FB730CE00623CB
:10112000FB7309E0214B9B6A03F48013002B02D070
:101130000A23FB7300E000BF32E01C4B1B6803F086
:101140008053002B03D0B3F1805F03D028E0072346
:10115000FB7302E00923FB7300BF21E0134BDB6A42
:1011600003F46033B3F5803F08D0B3F5003F08D0F7
:10117000B3F5004F08D10923FB7308E00223FB738A
:1011800005E00323FB7302E00123FB7300BF07E0CC
:101190000023FB73064840F6D141FFF7DFFA00BF9A
:1011A000FB7B18461037BD4680BD00BF00800C4059
:1011B000B83A000080B588B000AF78600B46FB708D
:1011C0000323FB610323FB7600233B617B6803F071
:1011D0000F03FB60FB68013B062B00F2438101A279
:1011E00052F823F001120000EF120000EF1200008D
:1011F0006514000065140000BD130000F313000027
:10120000FB78023B082B52D801A252F823F000BF12
:10121000351200003F120000491200008B1200003E
:10122000AF120000AF120000AF120000AF120000BA
:10123000A31200000423FB610023FB763DE003239F
:10124000FB610123FB7638E00223FB610223FB767E
:10125000FFF742FB034601331846FFF77FFBFFF71A
:101260006FF80246844B9A4206D9844A834B1B6826
:1012700043F06003136020E0804A804B1B6823F03A
:10128000600343F02003136017E00123FB61032395
:10129000FB76FFF721FB034601331846FFF75EFBA1
:1012A0000BE0774840F67651FFF758FAE0E07448D3
:1012B00040F67B51FFF752FADAE0FB7E1846012137
:1012C000012200F0E3F8FFF75BFC6C4AFB69536214
:1012D0006C48FFF7C9FD03461846FFF73FFBFEF7D2
:1012E0008BFFB860B8680021FFF76AFCC0E0FB78AC
:1012F000013B092B3CD801A252F823F02513000032
:101300002B1300003B130000711300007113000049
:101310004B130000711300007113000071130000E3
:101320006713000000237B6128E0002001210122D7
:1013300000F0ACF802237B6120E0012001210122B2
:1013400000F0A4F801237B6118E0FEF755FFB860B8
:10135000B868FFF703FB4C4804210122FFF754FA59
:1013600003237B610AE000237B6101233B6105E0ED
:10137000434840F61D61FFF7F1F979E0FB68022B65
:101380000DD13E493D4B9B6A23F4803323F0030388
:101390007A691A433B691B0413438B6268E037493F
:1013A000364B9B6A23F4801323F00C037A69920076
:1013B0001A433B691B0513438B6259E0FB78072BEB
:1013C00002D0092B07D00DE02C4A2C4B1B6823F0D0
:1013D000805313600CE0294A284B1B6843F080536C
:1013E000136005E0264840F67861FFF7B7F93FE063
:1013F0003EE0FB78032B13D0092B21D0022B2AD1FE
:1014000000200121012200F041F81C4B40225A62C9
:1014100000BF1A4BDB6A03F48033002BF9D020E0C5
:1014200001200121012200F031F8144B60225A62A0
:1014300000BF124BDB6A03F40033002BF9D010E03D
:101440000E4B20225A6200BF0C4BDB6A03F40043B0
:10145000002BF9D005E00A4840F6B761FFF77EF9A6
:1014600006E005E0064840F68C71FFF777F900BF0B
:101470002037BD4680BD00BF0048E80100800C4019
:10148000B83A00000043020040800C4080B586B0AE
:1014900000AF0346FB710B46BB7113467B71FB79B2
:1014A000042B32D801A252F823F000BFF914000037
:1014B000EB140000CF140000C1140000DD14000084
:1014C00001233B610223FB6001237B6123E00423B2
:1014D0003B610823FB6003237B611CE010233B611D
:1014E0002023FB6005237B6115E040233B618023C3
:1014F000FB6007237B610EE04FF480733B614FF488
:101500000073FB6009237B6105E00F4841F256310F
:10151000FFF724F914E0BB79002B0ED00B4A3B698E
:1015200013627B79002B0BD000BF09487969FFF764
:1015300081F90346002BF8D002E0044AFB681362ED
:101540001837BD4680BD00BFB83A000000800C408F
:101550002C800C4080B500AFFEF74EFE80BD00BF72
:1015600080B400AF034B0022C3F88420BD465DF871
:10157000047B704700800C4080B400AF044B45F6FC
:101580000E02C3F88420BD465DF8047B704700BF9F
:1015900000800C4080B584B000AF0346FB71FB793E
:1015A000002B0BD12B4BDB6A2B4A13601120FFF76A
:1015B0004DFD03461A46294B1A7047E0254BD3F8D8
:1015C000843003F00103FB60FFF7D6FF0023BB600C
:1015D000214B1B6803F00103BA681343BB601E4B29
:1015E0001B6803F01003BA681343BB601A4B1B68F7
:1015F00003F04003BA681343BB60174B1B6803F04A
:101600000403BA681343BB60134B1B6803F4807375
:10161000BA681343BB600F4ABB6813620F4B1B7859
:10162000052B05D00D4B1B7811201946FFF7C2FD85
:10163000094B1B6803F00103002B02D1054B02226A
:101640001A62FB68002B01D0FFF78AFF1037BD46F6
:1016500080BD00BF00800C40180100201C0100204C
:1016600080B483B000AF164B1B699BB203F03F03FD
:101670009BB21B02FB80124B9B6903F0F0039AB2F2
:10168000FB881343FB800E4BDB6903F0F0031B095F
:101690009AB2FB881343FB80FB88B3F5827F03D3A8
:1016A000FB88B3F5017F01D1012300E0002303F0A3
:1016B0000103DBB218460C37BD465DF8047B70476A
:1016C000D0FF0FE080B586B000AF0346FB71FB7919
:1016D000002B02D00020FFF75DFF1A4A194B1B694F
:1016E00043F004031361FFF7BBFF0346FB75FB7D6B
:1016F000002B11D0144B1A68144B1340FB60124A94
:10170000FB68C2F88030104B5B6823F046033B61F6
:101710000D4A3B69C2F8843030BFFB7D002B05D0F9
:10172000094AFB681360084A3B695360FB79002B48
:1017300003D00120FFF72EFF01E0FFF70BFF183762
:10174000BD4680BD00ED00E000E100E09CF1FD0041
:1017500080B582B000AF03463960FB71FB79002B86
:101760001FD0FB79012B19D0FB79022B13D0FB7909
:10177000032B0DD0FB79042B07D0FB79052B02D16D
:1017800041F6FF730FE000230DE04FF6FF730AE010
:101790004FF6FF7307E04FF6FF7304E04FF6FF7359
:1017A00001E04FF6FF733A68134103F00103002B89
:1017B00004D10B484FF45D71FEF7D0FF0949FA7967
:1017C0003B68012000FA03F318461346DB0013447C
:1017D0009B000B44103358600837BD4680BD00BFE6
:1017E000CC3A00000060004080B582B000AF0346F4
:1017F0003960FB71FB79002B1FD0FB79012B19D0CD
:10180000FB79022B13D0FB79032B0DD0FB79042B32
:1018100007D0FB79052B02D141F6FF730FE00023BF
:101820000DE04FF6FF730AE04FF6FF7307E04FF647
:10183000FF7304E04FF6FF7301E04FF6FF733A6861
:10184000134103F00103002B04D10B4840F2A131F6
:10185000FEF784FF0949FA793B68012000FA03F397
:1018600018461346DB0013449B000B4410331860EA
:101870000837BD4680BD00BFCC3A00000060004084
:1018800090B585B000AFB9607B600346FB7313462B
:10189000BB73FB7B002B1FD0FB7B012B19D0FB7B89
:1018A000022B13D0FB7B032B0DD0FB7B042B07D02B
:1018B000FB7B052B02D141F6FF730FE000230DE007
:1018C0004FF6FF730AE04FF6FF7307E04FF6FF7322
:1018D00004E04FF6FF7301E04FF6FF73BA6813415F
:1018E00003F00103002B04D1374840F20F11FEF73B
:1018F00035FFBB7B002B0DD07B68002B05D0FB7B1D
:101900001846B968FFF770FF04E0FB7B1846B9681A
:10191000FFF71EFFBB68072B1CD82C4CFA7B2B480B
:10192000F97B0B46DB000B449B0003445968BB6802
:101930009B0018460F238340DB430B40B97BB868FC
:101940008000814019431346DB0013449B0023446D
:10195000596024E01D4CFA7B1C48F97B0B46DB00E8
:101960000B449B00034408331968BB6803F18043B0
:10197000083B9B0018460F238340DB431940B87B8C
:10198000BB6803F18043083B9B0000FA03F3194353
:101990001346DB0013449B00234408331960BB7BD0
:1019A000002B0DD17B68002B05D0FB7B1846B96856
:1019B000FFF71AFF04E0FB7B1846B968FFF7C8FE83
:1019C0001437BD4690BD00BF303B000000600040B2
:1019D00080B487B000AFF860B9607A60FB6803F14B
:1019E0000473DA00BB6813449B007B617B697A68EF
:1019F0001A601C37BD465DF8047B704780B485B023
:101A000000AFF860B9607A60FB681A68BB68DB43B6
:101A10001A407B681A43FB681A601437BD465DF8AC
:101A2000047B704780B588B000AFF860B9607A6019
:101A3000FB707B68002B03D14248E921FEF78EFE44
:101A40007B68002B00D179E0FB681B6823F44072AF
:101A5000FB681A60FA68FB781B0210464FF440716D
:101A60001A46FFF7CBFFBB68002B03D13648FFF7C0
:101A7000FBF9B8604FF0FF33FB61FB681B6803F0B4
:101A80000203002B11D0FB78012B07D0022B08D0CA
:101A9000002B00D008E02D4BFB6105E02C4BFB61D7
:101AA00002E02C4BFB6100BF10E0FB78012B07D05C
:101AB000022B08D0002B00D008E0274BFB6105E08B
:101AC000264BFB6102E0264BFB6100BFBA68FB6955
:101AD0009A4204D81B4840F22311FEF73FFEFB78E0
:101AE000204AD35C7B617B689B00BA68D21A7B6911
:101AF000796801FB03F3B2FBF3F3013BBB61BB6904
:101B0000002B04DA0F4840F23111FEF727FEBB69C3
:101B1000B3F5007F04D30B484FF49971FEF71EFE16
:101B2000FB681B6803F00203002B04D0BB69002B89
:101B300001D10123BB61BA69FB681A612037BD4638
:101B400080BD00BF483B00004081040040164000BB
:101B5000C0D8A7008050740180841E0040548900C2
:101B6000002D3101443B000080B582B000AF7860A9
:101B700039607B68194A934208D07B68184A9342BF
:101B800004D018484FF4AE71FEF7E8FD7B680022E0
:101B90005A637B68144A1A637A683B685B78002B47
:101BA00001D0002300E00123104601211A46FFF76F
:101BB0000FFF3B6859683B689A683B681B7B7868F5
:101BC000FFF730FF7A683B681B78104600211A4601
:101BD000FFF7FEFE0837BD4680BD00BF00A00040F5
:101BE00000A40040483B0000CFFF010080B588B052
:101BF00000AF78607B689F4A934208D07B689E4A1A
:101C0000934204D09D484FF4D571FEF7A7FD7B6841
:101C1000984A934202D19A4BBB6108E07B68964A8E
:101C2000934202D1974BBB6101E0FC2302E2BB6906
:101C30009B687B617B689B6A3B613B6903F4C06383
:101C4000002B14D03B6903F40073002B03D0BB6955
:101C5000FD225A7007E03B6903F48063002B02D039
:101C6000BB69FE225A70BB6909221A70CEE1BB69BA
:101C70001B78082B00F2C28101A252F823F000BFAA
:101C8000A51C0000F71C00007D1D0000CF1D0000FA
:101C9000211E0000891E0000111F00004F1F0000C0
:101CA000E11F00007B695B8803F01003002B09D063
:101CB0007B691B881B0A9BB203F0060343F0F00309
:101CC000FB610EE07B691B8803F0FE03FB617B690F
:101CD0005B8803F00203002B03D0FB6943F0010390
:101CE000FB61BB6901221A707B68FA695A627B68E2
:101CF00001225A608AE13B6903F08003002B0CD07B
:101D00007B6880221A63BB69FF225A70BB69082274
:101D10001A707B6802225A602FE03B6903F040038F
:101D2000002B2AD07B6840221A637B695B8803F012
:101D30001003002B08D0BB6902221A707B691B8834
:101D4000DAB27B685A6218E07B695B8803F00203B1
:101D5000002B0ED0BB6907221A70BB691B797A6908
:101D6000DB0013441B89012B07D17B6808225A60D2
:101D70004CE1BB6905221A7047E147E13B6903F07A
:101D80008003002B0CD07B6880221A63BB69FF2282
:101D90005A70BB6908221A707B6802225A6015E0EB
:101DA0003B6903F04003002B10D07B6840221A638C
:101DB0007B695B8803F00203002B03D0BB6903221D
:101DC0001A7022E1BB6905221A701EE11EE17B69CF
:101DD0005B8803F01003002B09D07B691B881B0A6A
:101DE0009BB203F0060343F0F003FB6104E07B6960
:101DF0001B8803F0FE03FB617B695B8803F004032F
:101E0000002B03D0FB6943F00103FB61BB69042293
:101E10001A707B6801225A607B68FA695A62F5E0A1
:101E20003B6903F08003002B0CD07B6880221A638F
:101E3000BB69FF225A70BB6908221A707B680222B4
:101E40005A6015E03B6903F04003002B10D07B681B
:101E500040221A637B695B8803F00403002B03D0E4
:101E6000BB6907221A7003E0BB6905221A70CCE037
:101E7000CCE000BF00A0004000A40040483B0000B0
:101E8000200100202C010020BB695A88BB691B7906
:101E90007969DB000B441B899A4224D3BB69002279
:101EA0005A80BB691B790133DAB2BB691A717B694D
:101EB0005B8803F00403002B03D0BB6903221A7074
:101EC000A3E07B695B8803F00103002B03D1BB69AE
:101ED0001B79012B06D9BB6908221A707B68022284
:101EE0005A6093E091E0BB691B797A69DB00134487
:101EF0005A68BB695B88591C88B2B9694880134429
:101F00001B781A467B685A62BB6906221A707DE00C
:101F10003B6903F08003002B0CD07B6880221A639E
:101F2000BB69FF225A70BB6908221A707B680222C3
:101F30005A600BE03B6903F04003002B06D07B683E
:101F400040221A63BB6905221A705EE05EE03B69BD
:101F500003F02003002B42D0BB691B797A69DB00B8
:101F600013441B89FB607B68DB69FB72BB695B8880
:101F70001A46FB689A420ED2BB691B797A69DB006C
:101F800013445A68BB695B88591C88B2B969488098
:101F90001344FA7A1A70BB695B881A46FB689A4246
:101FA0000CD3FB68012B02D17B6808225A60BB6905
:101FB00008221A707B6802225A6010E07B680422B3
:101FC0005A60FB68012B0AD9BB695B881A46FB681B
:101FD000013B9A4203D17B6808225A6016E015E063
:101FE0003B6903F48073002B07D07B684FF4807249
:101FF0001A63BB6909221A7008E007E0BB69FB227B
:102000005A70BB6909221A7000E013E6BB691B789D
:10201000092B0BD17B6800225A63BB695B785BB2EA
:10202000012B05D1BB6900225A7001E0012301E0B8
:10203000BB695B785BB218462037BD4680BD00BFE8
:1020400080B584B000AF786039607B68374A9342CE
:1020500008D07B68364A934204D036484FF43C712E
:10206000FEF77CFB3B68002B04D1324840F2F121A3
:10207000FEF774FB7B682D4A934202D12E4BFB6026
:1020800008E07B682A4A934202D12C4BFB6001E0B6
:10209000FC2345E07B689B6803F00103002B02D022
:1020A0007B6820225A603B685B8803F00203002BA8
:1020B00003D03B681B89002B09D03B685B8803F089
:1020C0000403002B05D03B681B8A002B01D1FC23A5
:1020D00026E0FB6800221A70FB6801225A70FB6838
:1020E00000225A80FB6800221A71FB683A689A60E5
:1020F0007B68C0225A607B689B6A03F02003002B38
:1021000001D07B68DB697B680D4A1A637B685B6B77
:1021100043F4FC627B685A637868FFF767FD034607
:102120005BB218461037BD4680BD00BF00A000401E
:1021300000A40040483B0000200100202C010020AA
:10214000CFFF010080B584B000AF786039607B6854
:10215000012B03D90F48A921FEF700FB3B6803F0D0
:102160007F43002B03D00B48AE21FEF7F7FA7B68C4
:10217000002B02D0012B03D008E0074BFB6002E0EC
:10218000064BFB6000BFFB683A681A601037BD461B
:1021900080BD00BF5C3B0000080008400C00084008
:1021A00080B485B000AF78607B681B78002B02D0CC
:1021B0000123FB6001E00023FB607B685B78002B60
:1021C00003D0FB6843F00203FB607B689B78002B25
:1021D00003D0FB6843F00403FB60044AFB68136010
:1021E0001437BD465DF8047B704700BF000008400F
:1021F00080B584B000AF78607B68002B03D11B48AA
:102200003E21FEF7ABFA1A4B5B69DBB203F00F031A
:10221000DBB29B00FB73164B1B6903F0C0039B09E9
:10222000DAB2FB7B1343FB737B68FA7B9A70104B2B
:102230001B69DBB203F03F03DAB27B685A700C4BC8
:102240009B6903F0F0031B09DBB21B01FB73084B16
:10225000DB6903F0F0031B09DAB2FB7B1343FB736A
:102260007B68FA7B1A701037BD4680BD703B00005A
:10227000D0FF0FE080B487B000AFF860B9607A603B
:10228000FB6803F10473DA00BB6813449B007B61B5
:102290007B697A681A601C37BD465DF8047B70471D
:1022A00080B483B000AF7860034A7B6813630C3757
:1022B000BD465DF8047B70470010084080B582B0D1
:1022C00000AF0346FB71FB7983F00103DBB2002B07
:1022D00005D10F4B1B6803F00303002B07D1FB79DB
:1022E000002B04D00B484FF48B71FEF737FAFB79C3
:1022F000002B05D0064803210022FFF7BBFF04E0B6
:10230000034803210122FFF7B5FF0837BD4680BD12
:1023100000100840883B000080B584B000AF00206A
:10232000FEF75CFA024632239A420AD00020FFF7F9
:10233000C5FF322300201946FEF736FA0120FFF7C9
:10234000BDFF0720FFF7ACFFEFF311824FF0BF0393
:1023500083F31188BFF36F8FBFF34F8FBA607B6039
:10236000FEF7C8F8F860FB68002B07D0074B4FF06A
:1023700080521A60BFF34F8FBFF36F8F00233B6013
:102380003B6883F311881037BD4680BD04ED00E043
:1023900080B483B000AF0346FB71084997F907305A
:1023A0005B09FA7902F01F02012000FA02F241F8FB
:1023B00023200C37BD465DF8047B704700E100E048
:1023C00080B483B000AF0346FB71094997F9073029
:1023D0005B09FA7902F01F02012000FA02F22033B1
:1023E00041F823200C37BD465DF8047B704700BFE1
:1023F00000E100E080B400AF044BDB6C1B0EDBB2ED
:102400001846BD465DF8047B704700BFB081E00F01
:1024100080B582B000AF03463960FB71FB79002BB9
:102420001FD0FB79012B19D0FB79022B13D0FB793C
:10243000032B0DD0FB79042B07D0FB79052B02D1A0
:1024400041F6FF730FE000230DE04FF6FF730AE043
:102450004FF6FF7307E04FF6FF7304E04FF6FF738C
:1024600001E04FF6FF733A68134103F00103002BBC
:1024700004D10B484FF45D71FEF770F90949FA7900
:102480003B68012000FA03F318461346DB001344AF
:102490009B000B44103358600837BD4680BD00BF19
:1024A000043C00000060004080B582B000AF0346ED
:1024B0003960FB71FB79002B1FD0FB79012B19D000
:1024C000FB79022B13D0FB79032B0DD0FB79042B66
:1024D00007D0FB79052B02D141F6FF730FE00023F3
:1024E0000DE04FF6FF730AE04FF6FF7307E04FF67B
:1024F000FF7304E04FF6FF7301E04FF6FF733A6895
:10250000134103F00103002B04D10B4840F2A13129
:10251000FEF724F90949FA793B68012000FA03F330
:1025200018461346DB0013449B000B44103318601D
:102530000837BD4680BD00BF043C0000006000407D
:1025400080B582B000AFFFF755FF0346FB713B1D1E
:102550001846FFF74DFEFB790F2B0AD93B79022B6A
:1025600007D9054A044B1B6823F0500343F01003BE
:1025700013600837BD4680BDC0800C4080B483B076
:1025800000AF786039607B683A681A630C37BD46E3
:102590005DF8047B704700BF80B483B000AF786003
:1025A00039607B685A6B3B68DB431A407B685A632F
:1025B0000C37BD465DF8047B704700BF80B483B024
:1025C00000AF786039607B685A6B3B681A437B6860
:1025D0005A630C37BD465DF8047B704780B483B006
:1025E00000AF7860034A7B6893610C37BD465DF8A5
:1025F000047B70470000084080B483B000AF78606F
:102600000549054BDA697B681343CB610C37BD463E
:102610005DF8047B704700BF0000084080B400AF45
:10262000054A054B1B6923F00403136130BFBD4607
:102630005DF8047B704700BF00ED00E080B500AF9F
:102640000E480121FEF7A2FB0D480121FEF79EFB7B
:102650000C480121FEF79AFB0B480121FEF796FB7F
:10266000002001210122FEF711FF08480221FEF798
:10267000A1FD07480121FEF789FB80BD00C20400CF
:1026800000D20400004302000002040002001A000D
:102690006016100080B500AF05480649FFF76EFFD1
:1026A00003480449FFF78AFF0A20FFF771FE80BD47
:1026B00000A400402400010080B500AF0A20FFF70D
:1026C0007FFE04480449FFF767FF02480249FFF70D
:1026D00055FF80BD00A400402400010090B585B0E6
:1026E00000AF1B4B3C460FCB84E80F0002200421B7
:1026F0000B220123FFF7C4F8022005210B2201233E
:10270000FFF7BEF80220002104220023FFF7B8F8EB
:10271000104B03229A633B460E481946FFF724FAF2
:102720000D4B00221A700D4B00221A700C4B002228
:102730001A70084BE2225A61064A064B1B6843F0A6
:1027400016031360FFF7A6FF1437BD4690BD00BF08
:10275000683C000000A40040450100204601002024
:102760004401002080B500AF01E0FFF757FF034BA5
:102770001B78DBB2002BF8D180BD00BF45010020E3
:1027800080B586B000AF02200021FFF78DFEE22366
:10279000BB800123FB800F4BBB600F4B1B789BB2B0
:1027A000BB810E4B3B610A23BB823B1D0C48194683
:1027B000FFF746FC00BF0A48FFF718FA0346012B53
:1027C000F9D002200021FFF723FEFFF763FF18373F
:1027D000BD4680BD0C0000202000002048010020E4
:1027E00000A4004080B582B000AF114A3B4611887A
:1027F000927819809A700F4B1B68FB80FB88B3F5A9
:10280000FA4F03D2FB8803F5FA43FB80FB880020D4
:102810001946FFF797FC0220FFF7EEFE1E20FFF798
:10282000B7FD3B461846FFF7BBFC0837BD4680BDE9
:10283000783C0000F081E00F80B582B000AFFFF778
:102840007FFEFFF7FBFEFFF749FFFFF7CBFF00F02E
:10285000EDF800237B601F4B1B78DBB2002B2AD0E6
:10286000FFF780FF1C4A7B6813441B78FB701B4BEF
:102870001A68FB78013313441B7803F00303022B1F
:1028800002D1FB78203B00E0FB78D9B2124A7B688A
:1028900013440A461A7012480F4900F083F97B6806
:1028A00001337B600F4B1B781A467B689A420CDA27
:1028B00000237B6009E00C4B1B78DBB2002B04D0BB
:1028C000FFF75EFF084B00221A700020FEF7FAFEA9
:1028D000C1E700BF4501002048010020240000207E
:1028E0007C3C0000200000204601002080B500AFA5
:1028F0000220FFF773FE074B1B78DBB283F0010366
:10290000DBB2002B04D0FFF7D7FE034B01221A7075
:1029100080BD00BF450100204601002080B582B087
:1029200000AF1C4B9B6A7B607B6803F00403002BA9
:1029300009D0194B01221A70164BDB691548042186
:10294000FFF71CFE12E07B6803F02003002B0DD084
:10295000124B1B781A460F4BDB69D9B2104B9954B6
:102960000E4B1B780133DAB20C4B1A707B6803F400
:102970008033002B0AD007484FF48031FFF7FEFD6B
:10298000054B00221A70054B00221A700837BD460D
:1029900080BD00BF00A4004045010020440100208C
:1029A0004801002080B483B000AF78604FF06043EE
:1029B000D3F8803E03F00103002B13D04FF06043A7
:1029C000D3F8003E03F00103002B0BD000E000BF62
:1029D0004FF060431B68002BF9D04FF060437A68DA
:1029E000D2B21A707B6818460C37BD465DF8047B7E
:1029F000704700BF80B586B000AFF860B9607A60FC
:102A000000237B6109E0BB685A1CBA601B7818463A
:102A1000FFF7C8FF7B6901337B617A697B689A4263
:102A2000F1DB7B6818461837BD4680BD80B400AF27
:102A3000334A334B5B6C43F400535364314A314B9C
:102A4000D3F8203143F00403C2F820312D4A2D4B36
:102A5000D3F8203123F44073C2F82031294A294B9E
:102A6000D3F8B83023F47063C2F8B830254A254B48
:102A7000D3F8B83043F48063C2F8B830204B10224A
:102A80001A6200BF1E4BDB6A03F02003002BF9D053
:102A90001D4A1D4BDB6843F08073D3604FF06043E9
:102AA0001A4AC3F8B02F4FF060430022C3F8002E3B
:102AB0004FF060430022C3F8802E154B0222C3F86A
:102AC000F020134B0F221A614FF060430022C3F82D
:102AD000402E104B104A1A604FF060430F4AC3F863
:102AE000802E0B4B4FF48072C3F804234FF06043E9
:102AF0000122C3F8002EBD465DF8047B704700BF7D
:102B000000800C4000600040F0ED00E055CEACC508
:102B1000000004E0001000E0FE0300400D00010092
:102B200008B5074B044613B10021AFF30080054BF5
:102B30001868836A03B19847204600F02DFF00BF54
:102B400000000000843D00000E4B70B51E460E4C88
:102B50000025E41AA410A54204D056F82530984761
:102B60000135F8E700F01AFF084B094C1E46E41A3D
:102B7000A4100025A54204D056F825309847013509
:102B8000F8E770BD8C0000208C0000208C00002035
:102B90009000002003460244934202D003F8011B38
:102BA000FAE770470FB40A4B13B51C6824B1A36948
:102BB00013B9204600F04EF805AB2046A168049AF0
:102BC000019300F04DF902B0BDE8104004B0704729
:102BD00088000020014900F0A7B800BF11370000AD
:102BE00010B504460023036043608360818143661F
:102BF000C28103614361836119465C300822FFF79B
:102C0000C9FF054B24626362044BA362044BE36279
:102C1000044B236310BD00BFBD330000DF33000051
:102C2000173400003B34000070B568234D1E5D432F
:102C30000E4605F1740100F095F8044640B10021FC
:102C400080E842000C30A06005F16802FFF7A2FFA7
:102C5000204670BD836910B5044633BB8364C364EA
:102C60000365124B124A1B688262984204BF01231B
:102C7000836100F01FF86060204600F01BF8A06040
:102C8000204600F017F80421E06000226068FFF79A
:102C9000A7FFA06809210122FFF7A2FFE068122127
:102CA0000222FFF79DFF0123A36110BD843D0000B8
:102CB000D52B0000F8B51B4B07461E68B36913B946
:102CC0003046FFF7C7FF4836B4687368013B04D449
:102CD000B4F90C5075B16834F8E733682BB938464D
:102CE0000421FFF7A1FF306008B13668ECE70C2340
:102CF0003B60F8BD4FF6FF73E3810123A381656656
:102D00002560A560656025616561A56104F15C00D1
:102D100029460822FFF73EFF6563A563A564E564C5
:102D20002046F8BD843D00002DE9F84380468946E1
:102D300000F14804002694B1A5686768013F0CD4EF
:102D4000AB89012B07D9B5F90E30013303D04046CA
:102D50002946C84706436835F0E72468EBE7304664
:102D6000BDE8F88370B5CC1C24F0030408340C2CA7
:102D700038BF0C24002C064603DA0C2333600020F5
:102D800070BD8C42F9D3204A136810461946A1B190
:102D90000A68121B0ED40B2A03D90A608B188C50B8
:102DA0001FE08B420BBF5A684A6802605A6018BF26
:102DB0000B4616E00B464968E9E7144D2B681BB932
:102DC000304600F0EBFA28603046214600F0E6FA83
:102DD000421C0346D1D0C51C25F0030585420AD10B
:102DE0001C6003F10B001A1D20F00700821A0AD0A4
:102DF0005142995070BD3046E91A00F0CFFA0130C7
:102E0000BBD02B46ECE770BD3C0100203801002010
:102E1000936810B5013B002B936009DA9469A342D3
:102E200002DBCBB20A2B03D1BDE8104000F00ABB95
:102E30001368581C10601970C8B210BDF8B506466A
:102E40000F461446D518AC4208D0304614F8011B82
:102E50003A46FFF7DDFF431CF5D100E00020F8BD46
:102E60002DE9F0439DB00D4690460393064618B1F8
:102E700083690BB9FFF7EEFE754B9D4201D1756872
:102E800008E0744B9D4201D1B56803E0724B9D424E
:102E900008BFF568AB891C070AD52B6943B100232D
:102EA000099320238DF8293030238DF82A3041E012
:102EB0003046294600F02CFB0028F0D04FF0FF30C0
:102EC000C2E0039A0134111D12680391002ABBBFAE
:102ED000524243F0020307920792B8BF049323784B
:102EE0002E2B7BD0DFF8808121784046032200F032
:102EF00097FC38B1049AC8EB000040238340134389
:102F00000493013421785548062204F101088DF814
:102F1000281000F085FC002800F08580504B002B25
:102F200078D1039B073323F0070308330393099BEE
:102F30003B44099343461C4613F8012B1AB9B4EBE2
:102F400008090ED002E0252AF5D1F8E730462946D7
:102F500042464B46FFF772FF013070D0099B4B444D
:102F600009932378002B6AD000234FF0FF3204939B
:102F70000793059206938DF853301A9304F10108D4
:102F80004446DFF8E89021784846052200F048FCE6
:102F900008F10108049B30B1C9EB00000122824016
:102FA00013430493ECE7D80644BF20228DF8532046
:102FB000190744BF2B228DF8532022782A2A80D06B
:102FC000234607991C4622780133303A092A03D850
:102FD0000A2000FB0121F5E7079180E763782A2B9F
:102FE0000AD1039B02341A1D1B680392002BB8BF41
:102FF0004FF0FF33059375E7611C00220C462378E0
:103000000131303B092B03D80A2000FB0232F5E7DF
:10301000059267E703AB0093304604A92A46114B9B
:10302000AFF3008007E003AB0093304604A92A46C3
:103030000C4B00F093F8421C07467FF478AFAB8945
:103040005B063FF53BAF09981DB0BDE8F08300BFBC
:10305000883D0000A83D0000C83D0000F23D000092
:10306000000000003D2E0000EE3D0000E83D0000A5
:103070002DE9F84391461F468A680B69064693423C
:10308000B8BF1346C9F8003091F843200C46DDF86C
:10309000208012B10133C9F800302368990642BF7D
:1030A000D9F800300233C9F80030256815F006055C
:1030B0001CD094F843302268003318BF01239206D5
:1030C0001FD5E118302081F843005A1C94F84510B0
:1030D0002244023382F8431013E03046394604F1AB
:1030E00019020123C047013007D00135E368D9F840
:1030F00000209B1A9D42F0DBDBE74FF0FF30BDE87C
:10310000F8833046394604F14302C0470130F4D019
:103110002268D9F80050E36802F00602042A08BFCA
:103120005D1B2269A3680CBF25EAE5750025934263
:10313000C4BF9B1AED184FF00009A9450ADA3046C2
:10314000394604F11A020123C0470130D5D009F1F4
:103150000109F2E70020BDE8F88300002DE9FF41F6
:103160000C461746227E98466E2A06460A9B01F1B7
:10317000430100F0B08012D8632A23D00AD8002A75
:1031800000F0BD80582A40F0CC8084F84520DFF85C
:1031900004E257E0642A1ED0692A1CD0C1E0732AD9
:1031A00000F0B18009D86F2A2ED0702A40F0B98083
:1031B000226842F0200222603FE0752A24D0782A5B
:1031C0003BD0AEE01A6804F14205111D1960136886
:1031D00084F84230A9E020681A6810F0800F02D00D
:1031E000101D186008E010F0400F02F10400186094
:1031F00002D0B2F9003000E01368002B3EDA2D2235
:103200005B4284F8432039E020681A6810F0800F90
:1032100002D0101D186007E010F0400F02F104000A
:10322000186001D0138800E01368227EDFF864E1A3
:103230006F2A0CBF08220A221CE07822DFF858E12E
:1032400084F845202268186812F0800F00F1040508
:103250001D6003D1550601D5038800E00368D0073F
:1032600044BF42F0200222601BB9226822F02002F3
:1032700022601022002084F8430002E0DFF814E10D
:103280000A226568002DA8BF2068A560A4BF20F0B1
:103290000400206003B965B10D46B3FBF2F002FBF8
:1032A00010331EF8033005F8013D03460028F4D121
:1032B00000E00D46082A0BD12368DA0708D52369F8
:1032C00062689A42DEBF302305F8013C05F1FF3504
:1032D000491B21612EE025681A6815F0800F60698E
:1032E00003D0151D1D60136808E015F0400F02F1B2
:1032F00004051D60136801D0188000E018600023E9
:1033000023610D4616E01A68111D19601568002129
:103310002846626800F084FA08B1401B6060636868
:1033200004E004F1420584F84220012323610023D4
:1033300084F84330CDF800803046214603AA3B464E
:10334000FFF796FE013002D14FF0FF301FE030460C
:1033500039462A462369C0470130F5D023689B07C8
:1033600005D4E068039B9842B8BF18460FE00025DB
:10337000E368039A9B1A9D42F3DA3046394604F11A
:1033800019020123C0470130DED00135F0E704B057
:10339000BDE8F081F93D00000A3E000038B5064C5A
:1033A000002305460846236000F0E8FA431C02D1DA
:1033B000236803B12B6038BD5401002010B50C46C2
:1033C000B1F90E1000F07EFA0028ABBF636DA3893F
:1033D0001B1823F48053ACBF6365A38110BD2DE996
:1033E000F0411D468B890746DB050C46164605D580
:1033F000B1F90E100022022300F0B4F9A389384677
:1034000023F48053A381B4F90E1032462B46BDE855
:10341000F04100F06BB810B50C46B1F90E1000F099
:10342000A1F9431CA38915BF606523F4805343F4BD
:103430008053A38118BFA38110BDB1F90E1000F015
:10344000D3B8000070B50D461446064618B183691E
:103450000BB9FFF7FFFB224B9C4201D1746808E0D7
:10346000204B9C4201D1B46803E01F4B9C4208BF33
:10347000F468A369A360A3891A0709D523693BB13E
:1034800023682069EDB2181A636998420FDB08E0DF
:103490003046214600F03CF80028F1D04FF0FF30D4
:1034A00070BD3046214600F033F90028F6D1A368FC
:1034B0000130013BA36023685A1C22601D706369C0
:1034C000984204D0A389DB0707D50A2D05D13046E1
:1034D000214600F01DF90028E0D1284670BD00BF4C
:1034E000883D0000A83D0000C83D000038B5074CED
:1034F000054600202060084611461A46FFF77AFA72
:10350000431C02D1236803B12B6038BD5401002055
:10351000314B70B51D6806460C4625B1AB6913B931
:103520002846FFF797FB2D4B9C4201D16C6808E0C1
:103530002B4B9C4201D1AC6803E02A4B9C4208BF54
:10354000EC68A3899AB211071DD4D50602D40922CA
:10355000326038E0500712D5616B41B104F1440389
:10356000994202D0304600F069F900236363A389D1
:1035700023F02403A3810023636023692360A389CC
:1035800043F00803A38123694BB9A38903F4207393
:10359000B3F5007F03D03046214600F0F5F8A3894B
:1035A00013F0010205D00022A26062695242A261BA
:1035B00003E0990758BF6269A26022694AB903F023
:1035C000800080B230B143F04003A3814FF0FF3060
:1035D00070BD002070BD00BF88000020883D000045
:1035E000A83D0000C83D000038B5064C0023054644
:1035F0000846236000F09AF9431C02D1236803B106
:103600002B6038BD540100208A892DE9F041054620
:1036100010070C4657D44B68002B02DC0B6C002BB8
:1036200018DDE66AB6B102F48052002392B22F6828
:103630002B600AB1626D10E0216A28460123B04771
:10364000411C024609D12B683BB11D2B01D0162B22
:1036500046D12F600020BDE8F081A3895B0705D526
:103660006368D21A636B0BB1236CD21AE66A00232B
:103670002846216AB047461CA38905D12A681AB199
:103680001D2A01D0162A19D1002262602269D904AC
:10369000226004D5421C01D12B6803B96065616BBF
:1036A0002F600029D6D004F14403994202D0284665
:1036B00000F0C4F800206063BDE8F08143F04003EF
:1036C000A381BDE8F0810F69002FC3D093070E6876
:1036D0000CBF4B690023C7EB06080F608B6012E03C
:1036E000A3894FF0FF3043F04003A381BDE8F08190
:1036F0002846216A3A464346A66AB0470028EFDDCD
:103700000744C0EB0808B8F1000FF1DCA2E70000A5
:1037100038B50B6905460C46DBB118B183690BB9A6
:10372000FFF798FA0C4B9C4201D16C6808E00B4BF8
:103730009C4201D1AC6803E0094B9C4208BFEC6895
:10374000B4F90C302BB128462146BDE83840FFF7CC
:103750005BBF002038BD00BF883D0000A83D0000D1
:10376000C83D000038B5074C0546002020600846DB
:1037700011461A4600F0F2F8431C02D1236803B147
:103780002B6038BD54010020F0B58B8991B09D07A6
:1037900006460C4625D4B1F90E10002908DAA38993
:1037A000002513F0800F14BF40274FF480670DE011
:1037B00001AA00F099F80028F1DB029D4FF4806720
:1037C00005F47045A5F500514D424D41304639464E
:1037D000FFF7C8FA60B9A3899A051DD443F0020324
:1037E000A38104F14703236023610123636113E094
:1037F0000A4BB362A389206043F08003A381206158
:1038000067614DB13046B4F90E1000F07FF818B181
:10381000A38943F00103A38111B0F0BDD52B0000B3
:1038200010B5C9B202449042034605D01C7801305D
:103830008C42F8D1184610BD002010BD30B50029CB
:103840003CD051F8042C0B1F1D49002AB8BF9B180F
:103850000A680C4612B95A600B6030BD93420DD213
:1038600019685818904201BF5A5852181A60426895
:1038700023605A6030BD994203D80A465168002936
:10388000F9D1146815199D420AD11B682344D01838
:103890008842136012D10868034413604B680CE03F
:1038A00002D90C23036030BD1C681819884201BF7F
:1038B00008684968001918605960536030BD00BF3E
:1038C0003C01002038B5074C054600202060084622
:1038D00011461A4600F04AF8431C02D1236803B18E
:1038E0002B6038BD5401002038B5074C0023054635
:1038F00008461146236000F021F8431C02D12368DA
:1039000003B12B6038BD00BF5401002038B5064C10
:10391000002305460846236000F018F8431C02D136
:10392000236803B12B6038BD54010020024B58229C
:103930001A604FF0FF30704754010020024B5822AC
:103940001A604FF0FF30704754010020024B58229C
:103950001A600020704700BF54010020024B58221B
:103960001A604FF0FF30704754010020024B58227C
:103970001A604FF0FF30704754010020044A054997
:103980001368002B08BF0B46184410601846704798
:103990004001002058010020FEE700BFF8B500BF3D
:1039A000F8BC08BC9E467047F8B500BFF8BC08BC20
:1039B0009E4670472E2E2F4672656552544F532FE8
:1039C00065666D333267672F7461736B732E6300A6
:1039D00049444C4500000000633A5C73696C6963BC
:1039E0006F6E6C6162735C73696D706C696369742E
:1039F0007973747564696F5C76345C646576656C44
:103A00006F7065725C73646B735C6765636B6F5F2B
:103A100073646B5F73756974655C76322E325C70AB
:103A20006C6174666F726D5C656D6C69625C696E09
:103A3000635C656D5F62757274632E6800000000E0
:103A40002E2E2F656D6C69622F656D5F62757274C5
:103A5000632E6300633A5C73696C69636F6E6C61BB
:103A600062735C73696D706C696369747973747582
:103A700064696F5C76345C646576656C6F706572E2
:103A80005C73646B735C6765636B6F5F73646B5FC0
:103A900073756974655C76322E325C706C61746625
:103AA0006F726D5C656D6C69625C696E635C656D9F
:103AB0005F636D752E6800002E2E2F656D6C696238
:103AC0002F656D5F636D752E63000000633A5C7354
:103AD000696C69636F6E6C6162735C73696D706C45
:103AE000696369747973747564696F5C76345C6456
:103AF0006576656C6F7065725C73646B735C67652B
:103B0000636B6F5F73646B5F73756974655C76324A
:103B10002E325C706C6174666F726D5C656D6C6981
:103B2000625C696E635C656D5F6770696F2E6800CB
:103B30002E2E2F656D6C69622F656D5F6770696FE2
:103B40002E630000080911082E2E2F656D6C696226
:103B50002F656D5F6932632E630000002E2E2F6586
:103B60006D6C69622F656D5F7274632E6300000077
:103B70002E2E2F656D6C69622F656D5F737973747E
:103B8000656D2E6300000000633A5C73696C6963C5
:103B90006F6E6C6162735C73696D706C696369747C
:103BA0007973747564696F5C76345C646576656C92
:103BB0006F7065725C73646B735C6765636B6F5F7A
:103BC00073646B5F73756974655C76322E325C70FA
:103BD0006C6174666F726D5C656D6C69625C696E58
:103BE000635C656D5F62757274632E68000000002F
:103BF0000101000000300000010000000000000092
:103C000001000000633A5C73696C69636F6E6C61FC
:103C100062735C73696D706C6963697479737475D0
:103C200064696F5C76345C646576656C6F70657230
:103C30005C73646B735C6765636B6F5F73646B5F0E
:103C400073756974655C76322E325C706C61746673
:103C50006F726D5C656D6C69625C696E635C656DED
:103C60005F6770696F2E68000101000000000000AE
:103C700060670100000000000100010025730A00D8
:103C8000002020202020202020202828282828202C
:103C90002020202020202020202020202020202024
:103CA000208810101010101010101010101010108C
:103CB000100404040404040404040410101010107C
:103CC0001010414141414141010101010101010146
:103CD0000101010101010101010101011010101098
:103CE0001010424242424242020202020202020218
:103CF000020202020202020202020202101010106C
:103D00002000000000000000000000000000000093
:103D100000000000000000000000000000000000A3
:103D20000000000000000000000000000000000093
:103D30000000000000000000000000000000000083
:103D40000000000000000000000000000000000073
:103D50000000000000000000000000000000000063
:103D60000000000000000000000000000000000053
:103D70000000000000000000000000000000000043
:103D800000430000280000200000000000000000A8
:103D90000000000000000000000000000000000023
:103DA0000000000000000000000000000000000013
:103DB0000000000000000000000000000000000003
:103DC00000000000000000000000000000000000F3
:103DD00000000000000000000000000000000000E3
:103DE0000000000000000000232D302B2000686C34
:103DF0004C0065666745464700303132333435360E
:103E00003738394142434445460030313233343546
:103E1000363738396162636465660000000000006F
:083E200018C3FF7F0100000040
:103E2800006CDC0200800000809FD5006C65742067
:103E3800676F206F66206D79206765636B6F21005F
:103E480014000000803C000000000000883D0000D5
:103E5800A83D0000C83D0000000000000000000070
:103E68000000000000000000813D0000000000008C
:103E7800000000000000000000000000000000003A
:103E8800000000000000000000000000000000002A
:103E9800000000000000000000000000000000001A
:103EA80000000000000000002800002001010000C0
:083EB800DD0000000000000025
:04000003000001AD4B
:00000001FF
